:020000040000FA
:100000000C945D000C9485000C9485000C94850084
:100010000C9485000C9485000C9485000C9485004C
:100020000C9485000C9485000C9485000C9485003C
:100030000C9485000C9485000C9485000C9485002C
:100040000C94DD020C9485000C94AB020C94850298
:100050000C9485000C9485000C9485000C9485000C
:100060000C9485000C9485000000000024002700FB
:100070002A0000000000250028002B0004040404CE
:100080000404040402020202020203030303030342
:10009000010204081020408001020408102001021F
:1000A00004081020000000080002010000030407FB
:1000B00000000000000000007A0411241FBECFEFF2
:1000C000D8E0DEBFCDBF11E0A0E0B1E0EEE5F9E0A1
:1000D00002C005900D92AA38B107D9F722E0AAE82C
:1000E000B1E001C01D92A233B207E1F710E0CDE507
:1000F000D0E004C02197FE010E94A704CC35D107AF
:10010000C9F70E9427030C94AD040C940000AF9231
:10011000BF92CF92DF92EF92FF920F931F93CF93F4
:10012000DF936C017B018B01040F151FEB015E0156
:10013000AE18BF08C017D10759F06991D601ED91EB
:10014000FC910190F081E02DC6010995892B79F78A
:10015000C501DF91CF911F910F91FF90EF90DF903C
:10016000CF90BF90AF900895FC01538D448D252F03
:1001700030E0842F90E0821B930B541710F0CF9641
:10018000089501970895FC01918D828D981761F073
:10019000A28DAE0FBF2FB11D5D968C91928D9F5F8A
:1001A0009F73928F90E008958FEF9FEF0895FC0169
:1001B000918D828D981731F0828DE80FF11D858D1C
:1001C00090E008958FEF9FEF0895FC01918D228DAF
:1001D000892F90E0805C9F4F821B91098F73992734
:1001E000089585E991E00E94E50021E0892B09F45A
:1001F00020E0822F089580E090E0892B29F00E9472
:10020000F10081110C9400000895FC01A48DA80F49
:10021000B92FB11DA35ABF4F2C91848D90E0019648
:100220008F739927848FA689B7892C93A089B18968
:100230008C91837080648C93938D848D981306C009
:100240000288F389E02D80818F7D80830895EF926D
:10025000FF920F931F93CF93DF93EC0181E0888F80
:100260009B8D8C8D98131AC0E889F989808185FF50
:1002700015C09FB7F894EE89FF896083E889F989F2
:1002800080818370806480839FBF81E090E0DF91F4
:10029000CF911F910F91FF90EF900895F62E0B8D47
:1002A00010E00F5F1F4F0F731127E02E8C8D8E1102
:1002B0000CC00FB607FCFACFE889F989808185FF69
:1002C000F5CFCE010E940501F1CFEB8DEC0FFD2F94
:1002D000F11DE35AFF4FF0829FB7F8940B8FEA8924
:1002E000FB8980818062CFCFCF93DF93EC01888D33
:1002F0008823B9F0AA89BB89E889F9898C9185FDA1
:1003000003C0808186FD0DC00FB607FCF7CF8C912E
:1003100085FFF2CF808185FFEDCFCE010E940501E0
:10032000E9CFDF91CF91089590E0FC01EC55FF4FAC
:100330002491FC01E057FF4F3491FC01E458FF4F3A
:10034000E491EE23C9F0222339F0233001F1A8F41F
:10035000213019F1223029F1F0E0EE0FFF1FEE58A5
:10036000FF4FA591B4918FB7F894EC91611126C01D
:1003700030953E233C938FBF08952730A9F0283055
:10038000C9F0243049F7809180008F7D03C08091AF
:1003900080008F7780938000DFCF84B58F7784BD16
:1003A000DBCF84B58F7DFBCF8091B0008F778093BA
:1003B000B000D2CF8091B0008F7DF9CF3E2BDACF45
:1003C000CF93DF9390E0FC01E057FF4F24918458D6
:1003D0009F4FFC0184918823D1F090E0880F991FF2
:1003E000FC01E859FF4FA591B491FC01EE58FF4F75
:1003F000C591D49161110EC09FB7F8948C91E22FF2
:10040000E0958E238C932881E223E8839FBFDF91C0
:10041000CF9108958FB7F894EC91E22BEC938FBFB6
:10042000F6CF3FB7F89480918F0190919001A09101
:100430009101B091920126B5A89B05C02F3F19F0FC
:100440000196A11DB11D3FBFBA2FA92F982F882754
:10045000BC01CD01620F711D811D911D42E0660F2F
:10046000771F881F991F4A95D1F708958F929F9201
:10047000AF92BF92CF92DF92EF92FF924B015C015D
:100480000E9411026B017C010E9411026C197D090E
:100490008E099F09683E734081059105A8F321E00C
:1004A000821A9108A108B10888EEC80E83E0D81E10
:1004B000E11CF11C81149104A104B10429F7FF90FF
:1004C000EF90DF90CF90BF90AF909F908F90089566
:1004D000CF93DF93FC0101900020E9F73197AF0142
:1004E000481B590BBC0185E991E00E948700EC0193
:1004F00042E050E062E171E085E991E00E9487000E
:100500008C0F9D1FDF91CF9108951F920F920FB610
:100510000F9211242F933F934F935F936F937F9389
:100520008F939F93AF93BF93EF93FF9385E991E0F0
:100530000E940501FF91EF91BF91AF919F918F9123
:100540007F916F915F914F913F912F910F900FBECF
:100550000F901F9018951F920F920FB60F921124B3
:100560002F938F939F93EF93FF93E091A501F091C9
:10057000A6018081E091AB01F091AC0182FD1BC02E
:1005800090818091AE018F5F8F732091AF018217B0
:1005900041F0E091AE01F0E0EB56FE4F958F809375
:1005A000AE01FF91EF919F918F912F910F900FBE10
:1005B0000F901F9018958081F4CF1F920F920FB665
:1005C0000F9211242F933F938F939F93AF93BF93D9
:1005D00080918B0190918C01A0918D01B0918E0141
:1005E00030918A0123E0230F2D3758F50196A11D84
:1005F000B11D20938A0180938B0190938C01A0936D
:100600008D01B0938E0180918F0190919001A09106
:100610009101B09192010196A11DB11D80938F01AE
:1006200090939001A0939101B0939201BF91AF91EB
:100630009F918F913F912F910F900FBE0F901F9020
:10064000189526E8230F0296A11DB11DD2CF7894EC
:1006500084B5826084BD84B5816084BD85B58260C7
:1006600085BD85B5816085BD80916E008160809378
:100670006E001092810080918100826080938100E1
:1006800080918100816080938100809180008160F1
:10069000809380008091B10084608093B10080914C
:1006A000B00081608093B00080917A008460809374
:1006B0007A0080917A00826080937A0080917A003B
:1006C000816080937A0080917A00806880937A00BC
:1006D0001092C100E091A501F091A60182E0808313
:1006E000E091A101F091A2011082E091A301F091AB
:1006F000A4018FEC80831092AD01E091A901F091EB
:10070000AA0186E08083E091A701F091A801808191
:1007100080618083E091A701F091A80180818860C9
:100720008083E091A701F091A80180818068808397
:10073000E091A701F091A80180818F7D808361E025
:1007400085E00E94E00161E084E00E94E00161E058
:1007500083E00E94E00160E08CE00E94E001C0E0E4
:10076000D0E002E010E0EE24E394F12C85E991E082
:100770000E94E500181619065CF485E991E00E94D4
:10078000C300803709F06BC0F0929401E0929301AE
:1007900080919301909194018130910509F067C097
:1007A00085E191E00E94680284E291E00E94680283
:1007B00061E085E00E94940160E084E00E94940181
:1007C00060E083E00E94940168E873E180E090E0DB
:1007D0000E9436028FE291E00E9468028BE391E072
:1007E0000E94680260E085E00E94940161E083E07D
:1007F0000E94940168EB7BE080E090E00E9436026A
:1008000087E491E00E94680284E591E00E9468021A
:1008100060E083E00E94940161E084E00E94940122
:1008200068EE73E080E090E00E94360283E691E09B
:100830000E94680260E084E00E94940162E370E03C
:1008400080E090E00E943602209709F48FCF0E944A
:10085000F100882309F48ACF0E94000087CF8136F7
:1008600009F096CF109394010093930191CF0297D2
:1008700029F783E791E00E94680284E291E00E94F8
:1008800068028BE391E00E94680284E591E00E9497
:10089000680261E085E00E94940161E084E00E94CA
:1008A000940161E083E00E94940164EF71E080E0D4
:1008B00090E00E9436028FE291E00E94680287E495
:1008C00091E00E94680283E691E00E94680260E085
:1008D00085E00E94940160E084E00E94940160E061
:1008E00083E00E94940164EF71E080E090E00E9458
:1008F0003602A4CFE5E9F1E01382128288EE93E09C
:10090000A0E0B0E084839583A683B78384E091E080
:100910009183808385EC90E09587848784EC90E0D8
:100920009787868780EC90E0918B808B81EC90E0BC
:10093000938B828B82EC90E0958B848B86EC90E09D
:10094000978B868B118E128E138E148E0895EE0F58
:10095000FF1F0590F491E02D0994F894FFCF00005B
:10096000000027018700B4007401E500C300D70030
:100970000D0A004D6F646F206E6F726D616C204FB9
:100980004E004C6564526F6A6F204F4E004C656498
:10099000526F6A6F204F4646004C6564566572641C
:1009A00065204F4E004C65645665726465204F4665
:1009B00046004C6564416D6172696C6C6F204F4EEE
:1009C000004C6564416D6172696C6C6F204F4646E6
:1009D000004D6F646F206D616E74656E696D696541
:0809E0006E746F204F4E000001
:107E0000112484B714BE81FFF0D085E080938100F7
:107E100082E08093C00088E18093C10086E0809377
:107E2000C20080E18093C4008EE0C9D0259A86E02C
:107E300020E33CEF91E0309385002093840096BBD3
:107E4000B09BFECF1D9AA8958150A9F7CC24DD24C4
:107E500088248394B5E0AB2EA1E19A2EF3E0BF2EE7
:107E6000A2D0813461F49FD0082FAFD0023811F036
:107E7000013811F484E001C083E08DD089C08234E0
:107E800011F484E103C0853419F485E0A6D080C0E4
:107E9000853579F488D0E82EFF2485D0082F10E0AE
:107EA000102F00270E291F29000F111F8ED06801E7
:107EB0006FC0863521F484E090D080E0DECF843638
:107EC00009F040C070D06FD0082F6DD080E0C81688
:107ED00080E7D80618F4F601B7BEE895C0E0D1E017
:107EE00062D089930C17E1F7F0E0CF16F0E7DF06D8
:107EF00018F0F601B7BEE89568D007B600FCFDCFD4
:107F0000A601A0E0B1E02C9130E011968C91119780
:107F100090E0982F8827822B932B1296FA010C0160
:107F200087BEE89511244E5F5F4FF1E0A038BF0790
:107F300051F7F601A7BEE89507B600FCFDCF97BE46
:107F4000E89526C08437B1F42ED02DD0F82E2BD052
:107F50003CD0F601EF2C8F010F5F1F4F84911BD097
:107F6000EA94F801C1F70894C11CD11CFA94CF0C13
:107F7000D11C0EC0853739F428D08EE10CD085E9AC
:107F80000AD08FE07ACF813511F488E018D01DD067
:107F900080E101D065CF982F8091C00085FFFCCF94
:107FA0009093C60008958091C00087FFFCCF809118
:107FB000C00084FD01C0A8958091C6000895E0E648
:107FC000F0E098E1908380830895EDDF803219F02E
:107FD00088E0F5DFFFCF84E1DECF1F93182FE3DFCA
:107FE0001150E9F7F2DF1F91089580E0E8DFEE27F6
:047FF000FF270994CA
:027FFE00040479
:00000001FF
