:100000000C945D000C9485000C9485000C94850084
:100010000C9485000C9485000C9485000C9485004C
:100020000C9485000C9485000C9485000C9485003C
:100030000C9485000C9485000C9485000C9485002C
:100040000C946A020C9485000C9438020C941202F1
:100050000C9485000C9485000C9485000C9485000C
:100060000C9485000C94850000000008000201003B
:100070000003040700000000000000000000000072
:10008000250028002B0000000000240027002A0083
:10009000040404040404040402020202020203032E
:1000A0000303030301020408102040800102040836
:1000B0001020010204081020A70311241FBECFEF57
:1000C000D8E0DEBFCDBF11E0A0E0B1E0E8EBF7E0A3
:1000D00002C005900D92AC33B107D9F721E0ACE333
:1000E000B1E001C01D92A33EB207E1F710E0CDE5FB
:1000F000D0E004C02197FE010E94D403CC35D10783
:10010000C9F70E94B4020C94DA030C940000AF9279
:10011000BF92CF92DF92EF92FF920F931F93CF93F4
:10012000DF936C017B018B01040F151FEB015E0156
:10013000AE18BF08C017D10759F06991D601ED91EB
:10014000FC910190F081E02DC6010995892B79F78A
:10015000C501DF91CF911F910F91FF90EF90DF903C
:10016000CF90BF90AF900895FC01538D448D252F03
:1001700030E0842F90E0821B930B541710F0CF9641
:10018000089501970895FC01918D828D981761F073
:10019000A28DAE0FBF2FB11D5D968C91928D9F5F8A
:1001A0009F73928F90E008958FEF9FEF0895FC0169
:1001B000918D828D981731F0828DE80FF11D858D1C
:1001C00090E008958FEF9FEF0895FC01918D228DAF
:1001D000892F90E0805C9F4F821B91098F73992734
:1001E000089586E491E00E94E50021E0892B09F45E
:1001F00020E0822F089580E090E0892B29F00E9472
:10020000F10081110C9400000895FC01A48DA80F49
:10021000B92FB11DA35ABF4F2C91848D90E0019648
:100220008F739927848FA689B7892C93A089B18968
:100230008C91837080648C93938D848D981306C009
:100240000288F389E02D80818F7D80830895EF926D
:10025000FF920F931F93CF93DF93EC0181E0888F80
:100260009B8D8C8D98131AC0E889F989808185FF50
:1002700015C09FB7F894EE89FF896083E889F989F2
:1002800080818370806480839FBF81E090E0DF91F4
:10029000CF911F910F91FF90EF900895F62E0B8D47
:1002A00010E00F5F1F4F0F731127E02E8C8D8E1102
:1002B0000CC00FB607FCFACFE889F989808185FF69
:1002C000F5CFCE010E940501F1CFEB8DEC0FFD2F94
:1002D000F11DE35AFF4FF0829FB7F8940B8FEA8924
:1002E000FB8980818062CFCFCF93DF93EC01888D33
:1002F0008823B9F0AA89BB89E889F9898C9185FDA1
:1003000003C0808186FD0DC00FB607FCF7CF8C912E
:1003100085FFF2CF808185FFEDCFCE010E940501E0
:10032000E9CFDF91CF91089590E0FC01E859FF4FAC
:100330002491FC01EC55FF4F3491FC01E057FF4F35
:10034000E491EE23C9F0222339F0233001F1A8F41F
:10035000213019F1223029F1F0E0EE0FFF1FE458AF
:10036000FF4FA591B4918FB7F894EC91611126C01D
:1003700030953E233C938FBF08952730A9F0283055
:10038000C9F0243049F7809180008F7D03C08091AF
:1003900080008F7780938000DFCF84B58F7784BD16
:1003A000DBCF84B58F7DFBCF8091B0008F778093BA
:1003B000B000D2CF8091B0008F7DF9CF3E2BDACF45
:1003C0003FB7F8948091410190914201A09143017F
:1003D000B091440126B5A89B05C02F3F19F00196A6
:1003E000A11DB11D3FBFBA2FA92F982F8827BC018F
:1003F000CD01620F711D811D911D42E0660F771FB7
:10040000881F991F4A95D1F70895FC01019000209B
:10041000E9F73197AF01481B590BBC0186E491E025
:100420000C9487001F920F920FB60F9211242F93F6
:100430003F934F935F936F937F938F939F93AF936C
:10044000BF93EF93FF9386E491E00E940501FF9133
:10045000EF91BF91AF919F918F917F916F915F913C
:100460004F913F912F910F900FBE0F901F901895B5
:100470001F920F920FB60F9211242F938F939F9379
:10048000EF93FF93E0915601F09157018081E09145
:100490005C01F0915D0182FD1BC0908180915F0144
:1004A0008F5F8F7320916001821741F0E0915F01AF
:1004B000F0E0EA5BFE4F958F80935F01FF91EF9133
:1004C0009F918F912F910F900FBE0F901F901895B5
:1004D0008081F4CF1F920F920FB60F9211242F93A9
:1004E0003F938F939F93AF93BF9380913D019091E2
:1004F0003E01A0913F01B091400130913C0123E0C9
:10050000230F2D3758F50196A11DB11D20933C01F5
:1005100080933D0190933E01A0933F01B093400131
:100520008091410190914201A0914301B091440119
:100530000196A11DB11D8093410190934201A093AA
:100540004301B0934401BF91AF919F918F913F912F
:100550002F910F900FBE0F901F90189526E8230F34
:100560000296A11DB11DD2CF789484B5826084BD5E
:1005700084B5816084BD85B5826085BD85B58160A7
:1005800085BD80916E00816080936E001092810025
:1005900080918100826080938100809181008160E0
:1005A00080938100809180008160809380008091A1
:1005B000B10084608093B1008091B000816080932D
:1005C000B00080917A00846080937A0080917A00F4
:1005D000826080937A0080917A00816080937A00B3
:1005E00080917A00806880937A001092C100E09137
:1005F0005601F091570182E08083E0915201F09121
:1006000053011082E0915401F09155018FEC8083E9
:1006100010925E01E0915A01F0915B0186E08083C7
:10062000E0915801F0915901808180618083E091CF
:100630005801F0915901808188608083E0915801D0
:10064000F0915901808180688083E0915801F09198
:10065000590180818F7D8083E9EAF0E02491E5E90A
:10066000F0E08491882399F090E0880F991FFC01B5
:10067000EA57FF4FA591B491FC01E458FF4F8591D3
:1006800094918FB7F894EC91E22BEC938FBFC0E07C
:10069000D0E086E491E00E94E50018161906A4F463
:1006A00086E491E00E94C300809345018037D9F52C
:1006B00061E085E00E94940182E191E00E940502E0
:1006C0008DE191E00E9405020E94E0014B015C0176
:1006D00082E3C82ED12CE12CF12C0E94E001681994
:1006E00079098A099B09683E734081059105A8F341
:1006F00021E0C21AD108E108F10888EE880E83E0F3
:10070000981EA11CB11CC114D104E104F10429F705
:10071000209709F4BECF0E94F100882309F4B9CFD5
:100720000E940000B6CF813639F460E085E00E9477
:10073000940180E291E0C2CF8CE291E00E94050238
:100740006091450186E491E00E942701BDCFE6E477
:10075000F1E01382128288EE93E0A0E0B0E084839F
:100760009583A683B78384E091E09183808385ECB1
:1007700090E09587848784EC90E09787868780EC6B
:1007800090E0918B808B81EC90E0938B828B82EC5C
:1007900090E0958B848B86EC90E0978B868B118E06
:1007A000128E138E148E0895EE0FFF1F0590F49194
:0807B000E02D0994F894FFCF3D
:1007B8000000000027018700B4007401E500C300B1
:1007C800D7006C6564526F6A6F204F4E000D0A00A7
:1007D8006C6564526F6A6F204F4646004461746FBF
:0C07E80020726563696269646F3A00006A
:00000001FF
